{
  "_format": "hh-sol-artifact-1",
  "contractName": "SimpleStorage",
  "sourceName": "contracts/SimpleStorage.sol",
  "abi": [
    {
      "inputs": [
        {
          "internalType": "string",
          "name": "_name",
          "type": "string"
        },
        {
          "internalType": "uint256",
          "name": "_favoriteNumber",
          "type": "uint256"
        }
      ],
      "name": "addPerson",
      "outputs": [],
      "stateMutability": "nonpayable",
      "type": "function"
    },
    {
      "inputs": [],
      "name": "favoriteNumber",
      "outputs": [
        {
          "internalType": "uint256",
          "name": "",
          "type": "uint256"
        }
      ],
      "stateMutability": "view",
      "type": "function"
    },
    {
      "inputs": [
        {
          "internalType": "string",
          "name": "",
          "type": "string"
        }
      ],
      "name": "nameToFavoriteNumber",
      "outputs": [
        {
          "internalType": "uint256",
          "name": "",
          "type": "uint256"
        }
      ],
      "stateMutability": "view",
      "type": "function"
    },
    {
      "inputs": [
        {
          "internalType": "uint256",
          "name": "",
          "type": "uint256"
        }
      ],
      "name": "people",
      "outputs": [
        {
          "internalType": "uint256",
          "name": "favoriteNumber",
          "type": "uint256"
        },
        {
          "internalType": "string",
          "name": "name",
          "type": "string"
        }
      ],
      "stateMutability": "view",
      "type": "function"
    },
    {
      "inputs": [
        {
          "internalType": "uint256",
          "name": "_favoriteNumber",
          "type": "uint256"
        }
      ],
      "name": "store",
      "outputs": [],
      "stateMutability": "nonpayable",
      "type": "function"
    }
  ],
  "bytecode": "0x608060405234801561001057600080fd5b50610938806100206000396000f3fe608060405234801561001057600080fd5b50600436106100575760003560e01c8063471f7cdf1461005c5780636057361d1461007a5780636f760f41146100965780638bab8dd5146100b25780639e7a13ad146100e2575b600080fd5b610064610113565b60405161007191906102af565b60405180910390f35b610094600480360381019061008f919061030a565b610119565b005b6100b060048036038101906100ab919061047d565b610123565b005b6100cc60048036038101906100c791906104d9565b6101ac565b6040516100d991906102af565b60405180910390f35b6100fc60048036038101906100f7919061030a565b6101da565b60405161010a9291906105a1565b60405180910390f35b60005481565b8060008190555050565b6002604051806040016040528083815260200184815250908060018154018082558091505060019003906000526020600020906002020160009091909190915060008201518160000155602082015181600101908161018291906107dd565b5050508060018360405161019691906108eb565b9081526020016040518091039020819055505050565b6001818051602081018201805184825260208301602085012081835280955050505050506000915090505481565b600281815481106101ea57600080fd5b906000526020600020906002020160009150905080600001549080600101805461021390610600565b80601f016020809104026020016040519081016040528092919081815260200182805461023f90610600565b801561028c5780601f106102615761010080835404028352916020019161028c565b820191906000526020600020905b81548152906001019060200180831161026f57829003601f168201915b5050505050905082565b6000819050919050565b6102a981610296565b82525050565b60006020820190506102c460008301846102a0565b92915050565b6000604051905090565b600080fd5b600080fd5b6102e781610296565b81146102f257600080fd5b50565b600081359050610304816102de565b92915050565b6000602082840312156103205761031f6102d4565b5b600061032e848285016102f5565b91505092915050565b600080fd5b600080fd5b6000601f19601f8301169050919050565b7f4e487b7100000000000000000000000000000000000000000000000000000000600052604160045260246000fd5b61038a82610341565b810181811067ffffffffffffffff821117156103a9576103a8610352565b5b80604052505050565b60006103bc6102ca565b90506103c88282610381565b919050565b600067ffffffffffffffff8211156103e8576103e7610352565b5b6103f182610341565b9050602081019050919050565b82818337600083830152505050565b600061042061041b846103cd565b6103b2565b90508281526020810184848401111561043c5761043b61033c565b5b6104478482856103fe565b509392505050565b600082601f83011261046457610463610337565b5b813561047484826020860161040d565b91505092915050565b60008060408385031215610494576104936102d4565b5b600083013567ffffffffffffffff8111156104b2576104b16102d9565b5b6104be8582860161044f565b92505060206104cf858286016102f5565b9150509250929050565b6000602082840312156104ef576104ee6102d4565b5b600082013567ffffffffffffffff81111561050d5761050c6102d9565b5b6105198482850161044f565b91505092915050565b600081519050919050565b600082825260208201905092915050565b60005b8381101561055c578082015181840152602081019050610541565b60008484015250505050565b600061057382610522565b61057d818561052d565b935061058d81856020860161053e565b61059681610341565b840191505092915050565b60006040820190506105b660008301856102a0565b81810360208301526105c88184610568565b90509392505050565b7f4e487b7100000000000000000000000000000000000000000000000000000000600052602260045260246000fd5b6000600282049050600182168061061857607f821691505b60208210810361062b5761062a6105d1565b5b50919050565b60008190508160005260206000209050919050565b60006020601f8301049050919050565b600082821b905092915050565b6000600883026106937fffffffffffffffffffffffffffffffffffffffffffffffffffffffffffffffff82610656565b61069d8683610656565b95508019841693508086168417925050509392505050565b6000819050919050565b60006106da6106d56106d084610296565b6106b5565b610296565b9050919050565b6000819050919050565b6106f4836106bf565b610708610700826106e1565b848454610663565b825550505050565b600090565b61071d610710565b6107288184846106eb565b505050565b5b8181101561074c57610741600082610715565b60018101905061072e565b5050565b601f8211156107915761076281610631565b61076b84610646565b8101602085101561077a578190505b61078e61078685610646565b83018261072d565b50505b505050565b600082821c905092915050565b60006107b460001984600802610796565b1980831691505092915050565b60006107cd83836107a3565b9150826002028217905092915050565b6107e682610522565b67ffffffffffffffff8111156107ff576107fe610352565b5b6108098254610600565b610814828285610750565b600060209050601f8311600181146108475760008415610835578287015190505b61083f85826107c1565b8655506108a7565b601f19841661085586610631565b60005b8281101561087d57848901518255600182019150602085019450602081019050610858565b8683101561089a5784890151610896601f8916826107a3565b8355505b6001600288020188555050505b505050505050565b600081905092915050565b60006108c582610522565b6108cf81856108af565b93506108df81856020860161053e565b80840191505092915050565b60006108f782846108ba565b91508190509291505056fea2646970667358221220921457cc302608e819f42bc9b910839d87ababe9c57d1d19990f6da6a2e8381264736f6c63430008120033",
  "linkReferences": {},
  "deployedLinkReferences": {}
}