{
  "_format": "hh-sol-artifact-1",
  "contractName": "SimpleStorage",
  "sourceName": "contracts/SimpleStorage.sol",
  "abi": [
    {
      "inputs": [
        {
          "internalType": "string",
          "name": "_name",
          "type": "string"
        },
        {
          "internalType": "uint256",
          "name": "_favoriteNumber",
          "type": "uint256"
        }
      ],
      "name": "addPerson",
      "outputs": [],
      "stateMutability": "nonpayable",
      "type": "function"
    },
    {
      "inputs": [],
      "name": "favoriteNumber",
      "outputs": [
        {
          "internalType": "uint256",
          "name": "",
          "type": "uint256"
        }
      ],
      "stateMutability": "view",
      "type": "function"
    },
    {
      "inputs": [
        {
          "internalType": "string",
          "name": "",
          "type": "string"
        }
      ],
      "name": "nameToFavoriteNumber",
      "outputs": [
        {
          "internalType": "uint256",
          "name": "",
          "type": "uint256"
        }
      ],
      "stateMutability": "view",
      "type": "function"
    },
    {
      "inputs": [
        {
          "internalType": "uint256",
          "name": "",
          "type": "uint256"
        }
      ],
      "name": "people",
      "outputs": [
        {
          "internalType": "uint256",
          "name": "favoriteNumber",
          "type": "uint256"
        },
        {
          "internalType": "string",
          "name": "name",
          "type": "string"
        }
      ],
      "stateMutability": "view",
      "type": "function"
    },
    {
      "inputs": [
        {
          "internalType": "uint256",
          "name": "_favoriteNumber",
          "type": "uint256"
        }
      ],
      "name": "store",
      "outputs": [],
      "stateMutability": "nonpayable",
      "type": "function"
    }
  ],
  "bytecode": "0x608060405234801561001057600080fd5b506109b3806100206000396000f3fe608060405234801561001057600080fd5b50600436106100575760003560e01c8063471f7cdf1461005c5780636057361d1461007a5780636f760f41146100965780638bab8dd5146100b25780639e7a13ad146100e2575b600080fd5b610064610113565b604051610071919061032a565b60405180910390f35b610094600480360381019061008f9190610385565b610119565b005b6100b060048036038101906100ab91906104f8565b61014b565b005b6100cc60048036038101906100c79190610554565b610224565b6040516100d9919061032a565b60405180910390f35b6100fc60048036038101906100f79190610385565b610252565b60405161010a92919061061c565b60405180910390f35b60005481565b61012d67dc93c98cbb79eeb060c01b61030e565b610141678e44bfda16fdae4a60c01b61030e565b8060008190555050565b61015f677a159bfa7d3689f260c01b61030e565b61017367b2bca6f50b102b2b60c01b61030e565b61018767aab6ee9035a6a86a60c01b61030e565b600260405180604001604052808381526020018481525090806001815401808255809150506001900390600052602060002090600202016000909190919091506000820151816000015560208201518160010190816101e69190610858565b5050506101fd67e8e80a2478433cba60c01b61030e565b8060018360405161020e9190610966565b9081526020016040518091039020819055505050565b6001818051602081018201805184825260208301602085012081835280955050505050506000915090505481565b6002818154811061026257600080fd5b906000526020600020906002020160009150905080600001549080600101805461028b9061067b565b80601f01602080910402602001604051908101604052809291908181526020018280546102b79061067b565b80156103045780601f106102d957610100808354040283529160200191610304565b820191906000526020600020905b8154815290600101906020018083116102e757829003601f168201915b5050505050905082565b50565b6000819050919050565b61032481610311565b82525050565b600060208201905061033f600083018461031b565b92915050565b6000604051905090565b600080fd5b600080fd5b61036281610311565b811461036d57600080fd5b50565b60008135905061037f81610359565b92915050565b60006020828403121561039b5761039a61034f565b5b60006103a984828501610370565b91505092915050565b600080fd5b600080fd5b6000601f19601f8301169050919050565b7f4e487b7100000000000000000000000000000000000000000000000000000000600052604160045260246000fd5b610405826103bc565b810181811067ffffffffffffffff82111715610424576104236103cd565b5b80604052505050565b6000610437610345565b905061044382826103fc565b919050565b600067ffffffffffffffff821115610463576104626103cd565b5b61046c826103bc565b9050602081019050919050565b82818337600083830152505050565b600061049b61049684610448565b61042d565b9050828152602081018484840111156104b7576104b66103b7565b5b6104c2848285610479565b509392505050565b600082601f8301126104df576104de6103b2565b5b81356104ef848260208601610488565b91505092915050565b6000806040838503121561050f5761050e61034f565b5b600083013567ffffffffffffffff81111561052d5761052c610354565b5b610539858286016104ca565b925050602061054a85828601610370565b9150509250929050565b60006020828403121561056a5761056961034f565b5b600082013567ffffffffffffffff81111561058857610587610354565b5b610594848285016104ca565b91505092915050565b600081519050919050565b600082825260208201905092915050565b60005b838110156105d75780820151818401526020810190506105bc565b60008484015250505050565b60006105ee8261059d565b6105f881856105a8565b93506106088185602086016105b9565b610611816103bc565b840191505092915050565b6000604082019050610631600083018561031b565b818103602083015261064381846105e3565b90509392505050565b7f4e487b7100000000000000000000000000000000000000000000000000000000600052602260045260246000fd5b6000600282049050600182168061069357607f821691505b6020821081036106a6576106a561064c565b5b50919050565b60008190508160005260206000209050919050565b60006020601f8301049050919050565b600082821b905092915050565b60006008830261070e7fffffffffffffffffffffffffffffffffffffffffffffffffffffffffffffffff826106d1565b61071886836106d1565b95508019841693508086168417925050509392505050565b6000819050919050565b600061075561075061074b84610311565b610730565b610311565b9050919050565b6000819050919050565b61076f8361073a565b61078361077b8261075c565b8484546106de565b825550505050565b600090565b61079861078b565b6107a3818484610766565b505050565b5b818110156107c7576107bc600082610790565b6001810190506107a9565b5050565b601f82111561080c576107dd816106ac565b6107e6846106c1565b810160208510156107f5578190505b610809610801856106c1565b8301826107a8565b50505b505050565b600082821c905092915050565b600061082f60001984600802610811565b1980831691505092915050565b6000610848838361081e565b9150826002028217905092915050565b6108618261059d565b67ffffffffffffffff81111561087a576108796103cd565b5b610884825461067b565b61088f8282856107cb565b600060209050601f8311600181146108c257600084156108b0578287015190505b6108ba858261083c565b865550610922565b601f1984166108d0866106ac565b60005b828110156108f8578489015182556001820191506020850194506020810190506108d3565b868310156109155784890151610911601f89168261081e565b8355505b6001600288020188555050505b505050505050565b600081905092915050565b60006109408261059d565b61094a818561092a565b935061095a8185602086016105b9565b80840191505092915050565b60006109728284610935565b91508190509291505056fea2646970667358221220e151a791cf139c8d2850f84a6d1d96818b7c0cc316991bdb751b9ac04c15420964736f6c63430008120033",
  "linkReferences": {},
  "deployedLinkReferences": {}
}